:100000000C945F060C94A6060C94A6060C94A60607
:100010000C94A6060C94A6060C94A6060C94A606B0
:100020000C94A6060C94A6060C94B30E0C94860FA2
:100030000C94D41D0C94A6060C94A6060C94A6064B
:100040000C94A6060C94A6060C94A6060C94A60680
:100050000C94A6060C94481E0C94A6060C94A606B6
:100060000C94A6060C94A6060C94A6060C94A60660
:100070000C94A6060C94A6060C94A6060C94A60650
:100080000C94A6060C94A6060C94A6060C94A60640
:100090000C94A6060C94A6060C94A6060C94A60630
:1000A0000C94A6060C94A6060C94A606000000006C
:1000B000000000000000000000000000F1A1F1A21B
:1000C000F1A3F1A4F1A5F1A6F1A7028A048A088A96
:1000D000218A228A248A288A00C001C002C003C063
:1000E00004C005C006C007C029141A0815171C183B
:1000F0000C12132A2B041607090A0B0D0E0F0028E9
:1001000039E11D1B0619051110E3524CE000E2C055
:10011000002C00C17650514F011E1F2021222324A4
:10012000252627010131382D2E34353201330001C7
:1001300001010101010101012F3001010100010153
:100140000001000101010101013A3B3C3D3E3F40FD
:100150004142434401450101010101010101000146
:10016000010101010101010101AA4BA901000101E5
:1001700000010001014A4E4D01010101010101018F
:100180000101010101010101010101010101000160
:100190000101010101010101010101010100010150
:1001A0000001000101010101010101010101010141
:1001B0000101010101010101010101010101000130
:1001C0000101010101010101010101010100010120
:1001D0000001000101010101010101010101010111
:1001E0000101010101010101010101010101000100
:1001F00001010101010101010101010101000101F0
:1002000000010001010101010101010101010101E0
:1002100001010101010101010101010101010001CF
:1002200001010101010101010101010101000101BF
:1002300000010001010101010101010101010101B0
:10024000010101010101010101010101010100019F
:10025000010101010101010101010101010001018F
:1002600000010001010101010A0025303136620060
:100270003A200025303258000A722F632030313284
:10028000333435363738394142434445460A000A4B
:10029000002530325800626F756E6365213A200088
:1002A0005B735D004B6579626F617264207374618A
:1002B00072742E0A0055534220636F6E666967752B
:1002C0007265642E0A005B575D005B535D005B52F4
:1002D0005D005B445D005B435D00200343007500EF
:1002E000730074006F006D0020004B006500790002
:1002F00062006F0061007200640000000803740077
:100300006D006B0000000403090409028D00050163
:1003100000A03209040000010301010009211101BC
:1003200000012240000705810308000A09040100BA
:100330000103010200092111010001224D000705FE
:10034000820308000A0904020001030000000921D9
:10035000110100012236000705830308000A090481
:100360000300020300000009211101000122220004
:100370000705840320000107050403200001090488
:1003800004000103000000092111010001223900CD
:10039000070585031000011201100100000008ED9F
:1003A000FE606001000102000105010906A10105CE
:1003B0000719E029E7150025019508750181020557
:1003C000081901290595057501910295017503919B
:1003D0000105071900297715002501957875018118
:1003E00002C00631FF0974A1010975150026FF003E
:1003F0009520750881020976150026FF0095207565
:10040000089102C005010980A1018502160100269C
:10041000B7001A01002AB700751095018100C005C8
:100420000C0901A1018503160100269C021A010096
:100430002A9C02751095018100C005010902A101E5
:100440000901A100050919012905150025019505D6
:10045000750181029501750381010501093009319A
:100460001581257F95027508810609381581257F3C
:10047000950175088106050C0A38021581257F95BE
:100480000175088106C0C005010906A1010507190B
:10049000E029E71500250195087501810295017590
:1004A0000881010508190129059505750191029535
:1004B00001750391010507190029FF150026FF00AA
:1004C000950675088100C00A002530325820006B5F
:1004D0006579626F6172645F7265706F72743A20E1
:1004E000004C45443A20253032580A0064656C5F60
:1004F0006B65795F6269743A2063616E277420646A
:10050000656C3A20253032580A006164645F6B657F
:10051000795F6269743A2063616E27742061646454
:100520003A20253032580A00646F6E652E0A006248
:100530006F6F746D61676963207363616E3A202E1B
:100540002E2E2000290A002575002F002575005D3C
:100550002800256400200025640020002564002078
:10056000002564007C0025303258006D6F7573657E
:100570006B6579205B62746E7C78207920762068C8
:100580005D287265702F61636C293A205B006D6B8A
:100590005F776865656C5F74696D655F746F5F6DCB
:1005A0006178203D2025640A006D6B5F7768656582
:1005B0006C5F6D61785F7370656564203D202564B4
:1005C0000A006D6B5F74696D655F746F5F6D617854
:1005D000203D2025640A006D6B5F6D61785F73704C
:1005E000656564203D2025640A006D6B5F696E744B
:1005F000657276616C203D2025640A006D6B5F6436
:10060000656C6179203D2025640A006D6B5F776819
:1006100065656C5F74696D655F746F5F6D6178208F
:100620003D2025640A006D6B5F776865656C5F6DC2
:1006300061785F7370656564203D2025640A006DF4
:100640006B5F74696D655F746F5F6D6178203D20CD
:1006500025640A006D6B5F6D61785F73706565641A
:10066000203D2025640A006D6B5F696E74657276AB
:10067000616C203D2025640A006D6B5F64656C61D0
:1006800079203D2025640A000A00257500363A20AD
:10069000776865656C5F74696D655F746F5F6D61C8
:1006A000783A20000A00257500353A20776865659C
:1006B0006C5F6D61785F73706565643A20000A0055
:1006C000257500343A2074696D655F746F5F6D61E4
:1006D000783A20000A00257500333A206D61785F72
:1006E00073706565643A20000A00257500323A206F
:1006F000696E74657276616C286D73293A20000A00
:1007000000257500313A2064656C6179282A313002
:100710006D73293A20000A092D2056616C756573A6
:10072000202D0A004D3E004D25643E20003F007301
:1007300065742064656661756C740A00433E200030
:1007400077686572652064656C74613A20637572C0
:10075000736F723D25642C20776865656C3D256458
:100760000A53656520687474703A2F2F656E2E7772
:10077000696B6970656469612E6F72672F77696B49
:10078000692F4D6F7573655F6B6579730A000A0990
:100790002D204D6F7573656B6579202D0A45534388
:1007A0002F713A09717569740A313A0964656C618F
:1007B00079282A31306D73290A323A09696E7465D5
:1007C0007276616C286D73290A333A096D61785F1E
:1007D00073706565640A343A0974696D655F746F96
:1007E0005F6D61780A353A09776865656C5F6D61A0
:1007F000785F73706565640A363A09776865656C79
:100800005F74696D655F746F5F6D61780A0A703A35
:10081000097072696E742076616C7565730A643A4A
:10082000097365742064656661756C74730A75700C
:100830003A092B310A646F776E3A092D310A7067D5
:1008400075703A092B31300A7067646F776E3A0918
:100850002D31300A0A7370656564203D2064656C33
:100860007461202A206D61785F7370656564202A49
:100870002028726570656174202F2074696D655F32
:10088000746F5F6D6178290A003F004D3E20004380
:100890003E20004C25640A000A092D20436F6E7328
:1008A0006F6C65202D0A4553432F713A09717569A4
:1008B000740A6D3A096D6F7573656B65790A000A84
:1008C000092D204D61676963202D0A643A0964652A
:1008D0006275670A783A096465627567206D6174AC
:1008E0007269780A6B3A096465627567206B65798D
:1008F000626F6172640A6D3A096465627567206DA2
:100900006F7573650A763A0976657273696F6E0A58
:10091000733A097374617475730A633A09636F6E8D
:10092000736F6C65206D6F64650A302D343A096C05
:1009300061796572302D34284631302D4634290ACC
:10094000506175733A09626F6F746C6F61646572A0
:100950000A653A09656570726F6D0A6E3A094E4B09
:10096000524F0A000A002575002E6E6B726F3A20F6
:10097000000A002575002E737761705F6261636BFA
:10098000736C6173685F6261636B73706163653A16
:1009900020000A002575002E737761705F67726111
:1009A00076655F6573633A20000A002575002E6E38
:1009B0006F5F6775693A20000A002575002E73770E
:1009C00061705F72616C745F726775693A20000ACA
:1009D000002575002E737761705F6C616C745F6CBD
:1009E0006775693A20000A002575002E63617073EF
:1009F0006C6F636B5F746F5F636F6E74726F6C3A72
:100A000020000A002575002E737761705F636F6E9A
:100A100074726F6C5F636170736C6F636B3A20000C
:100A20000A0025303258006B65796D61705F636F25
:100A30006E6669672E7261773A20000A002575009C
:100A40002E6D6F7573653A20000A002575002E6BB8
:100A50006579626F6172643A20000A002575002E84
:100A60006D61747269783A20000A002575002E6560
:100A70006E61626C653A20000A00253032580064CD
:100A8000656275675F636F6E6669672E7261773A3C
:100A900020000A0025750064656661756C745F6CE2
:100AA000617965723A20003F004E4B524F3A206FF9
:100AB00066660A004E4B524F3A206F6E0A00746908
:100AC0006D65725F72656164333228293A20253082
:100AD000346C580A006B6579626F6172645F6E6B8B
:100AE000726F3A2025580A006B6579626F617264F3
:100AF0005F69646C653A2025580A006B6579626FFE
:100B00006172645F70726F746F636F6C3A20255806
:100B10000A00686F73745F6B6579626F6172645FFE
:100B20006C65647328293A2025580A000A092D208B
:100B3000537461747573202D0A004743433A20367D
:100B40002E322E30204156522D4C4942433A20320B
:100B50002E302E30204156525F415243483A206198
:100B60007672350A004F5054494F4E533A204C5537
:100B7000464120424F4F544D41474943204D4F5528
:100B800053454B45592045585452414B45592043F4
:100B90004F4E534F4C4520434F4D4D414E44204EF8
:100BA0004B524F20343039360A004255494C443AB2
:100BB00020756E6B6E6F776E202831373A34343A79
:100BC0003232204A616E2020312032303137290AFA
:100BD000005649443A2030784645454428746D6BA8
:100BE00029205049443A2030783630363028437531
:100BF00073746F6D204B6579626F61726429205642
:100C000045523A203078303030310A004445534361
:100C10003A20437573746F6D204B6579626F617212
:100C2000640A000A092D2056657273696F6E202DC3
:100C30000A000A6D6F7573653A206F66660A000ACE
:100C40006D6F7573653A206F6E0A000A6B65796285
:100C50006F6172643A206F66660A000A6B6579629A
:100C60006F6172643A206F6E0A000A6D6174726976
:100C7000783A206F66660A000A6D61747269783A84
:100C8000206F6E0A000A64656275673A206F6E0A0B
:100C9000000A64656275673A206F66660A000A0A90
:100CA000626F6F746C6F616465722E2E2E2000432C
:100CB0003E20006565636F6E6669673A0A0011241D
:100CC0001FBECFEFDAE0DEBFCDBF04B603FE27C004
:100CD0008091E0019091E101A091E201B091E301E6
:100CE0008730904BA740B04BD1F41092E0011092A6
:100CF000E1011092E2011092E30114BE84B7877FF4
:100D000084BF0FB6F894A8958091600088618093A5
:100D10006000109260000FBEE0E0F8E3099511E07A
:100D2000A0E0B1E0E2EDF5E502C005900D92A83338
:100D3000B107D9F721E0A8E3B1E001C01D92A03EC0
:100D4000B207E1F70E94ED0B0C94E72A0C94000027
:100D5000FF93EF93E0913801F0913901309709F05A
:100D60000995EF91FF910895FC018591803011F074
:100D7000EFDFFBCF0895FF27E0E230E247FF0CC032
:100D8000419597FF09C0EDE260957095809590952B
:100D9000611D711D811D911D27FF02C0219530E34A
:100DA00050E2AA27660F771F881F991FAA1FA41752
:100DB00010F0A41B63955A95A9F7AA3008F0A95F13
:100DC000A05DAF93F395611571058105910541F71C
:100DD000ED3211F4EF93F395F21718F43F93F39576
:100DE000FBCF8F91B5DFFA95E1F70895E991F9917D
:100DF0008591803021F0853219F0AADFF9CF08956E
:100E000020E0E89455915532C1F3503311F46894C1
:100E100055915A3348F4505390F3220F022E220F6B
:100E2000220F200D250FF4CF0EF421958991999171
:100E3000533619F3533729F1533559F1BC0188273B
:100E40009927E8945C3621F4899199916894559199
:100E5000543639F446EF7EF077FF0DC08FEF9FEFE9
:100E60000AC055374AE039F0583540E121F0523692
:100E700042E009F00895FF93EF937DDFEF91FF913A
:100E8000B7CFFF93EF93FC0181918030B9F360DF1E
:100E9000FBCFFF93EF9368DFF1CFDF93CF93CDB715
:100EA000DEB72596A3DFCF91DF910895FC01828103
:100EB000462F50E048305105A8F5FA01EE59F84F99
:100EC0000C949C2A6A076F07740779077E078307CB
:100ED00088078D07811129C08AEB90E00895811160
:100EE00027C088EB90E00895811125C086EB90E043
:100EF0000895811123C084EB90E00895811121C0F1
:100F000082EB90E0089581111FC080EB90E008957E
:100F100081111DC08EEA90E0089581111BC08CEAFA
:100F200090E0089580E090E008958BEB90E00895C4
:100F300089EB90E0089587EB90E0089585EB90E0D1
:100F4000089583EB90E0089581EB90E008958FEA97
:100F500090E008958DEA90E00895E62FF0E09CE09F
:100F6000799FE00DF11D112490E3899FE00DF11DA3
:100F70001124E851FF4F84910895E82FF0E0EE0F1F
:100F8000FF1FE45CF0408591949108958AB1807FC1
:100F90008AB98BB1807F8BB9089585B7806885BF8A
:100FA00085B7806885BF0E94C6078AB18F768AB9E7
:100FB0008BB180698BB93E98469A6E98769A84B1C7
:100FC000817884B985B18E6785B980B38F7380BB12
:100FD00081B3806C81BBA2E4B1E011961C921E9299
:100FE000EAE3F1E01182108213961C921E9212978E
:100FF0001382128215961C921E92149715821482E7
:1010000017961C921E921697178216820895BF9209
:10101000CF92DF92EF92FF920F931F93CF93DF93C4
:10102000CAE3D1E0D12CCC24C394E5E0BE2EF1E993
:10103000EF2EF2E0FF2E82E0D81609F4BBC093E059
:10104000D91609F4BAC081E0D81609F4B0C0539A91
:101050005B9890EA9A95F1F789B182958F708C250B
:10106000082F017010E03699ABC082E090E0802B31
:10107000912B29B1022E000C330B2095309522279D
:10108000330F221F3327220F331F220F331F822BD0
:10109000932B669998C028E030E0822B932B1C9903
:1010A00095C020E130E0822B932B1D9992C020E265
:1010B00030E0822B932B1E998FC020E430E0822BEE
:1010C000932B1A998CC020E830E0822B932B1B992C
:1010D00089C020E031E0822B932B199986C020E053
:1010E00032E0822B932B2FB1022E000C330B209574
:1010F00030952227330F221F3327322F2227330F19
:10110000330F822B932B7E9973C020E038E0822B23
:10111000932B288139812817390741F199838883D6
:1011200080910001882301F18091C10180FF04C0FA
:1011300086E992E00E94B4068091C10180FF0CC054
:10114000809100011F928F93FF92EF920E944D07B2
:101150000F900F900F900F908091C10180FF04C0FD
:101160008FE892E00E94B406B09200010E94C60788
:10117000D394229684E0D8125ECF80910001882318
:1011800059F08150809300018823A9F18FE99FE0F5
:101190000197F1F700C0000081E0DF91CF911F912E
:1011A0000F91FF90EF90DF90CF90BF900895529AEB
:1011B0005A984FCF519A59984CCF509A589849CF36
:1011C00080E090E054CF20E030E067CF20E030E0D6
:1011D0006ACF20E030E06DCF20E030E070CF20E03B
:1011E00030E073CF20E030E076CF20E030E079CF00
:1011F00020E030E08CCF80913A0190913B019093B8
:1012000043018093420180913C0190913D01909374
:1012100045018093440180913E0190913F0190935C
:101220004701809346018091400190914101909344
:10123000490180934801B0CFE82FF0E0EE0FFF1F87
:10124000EE5BFE4F808191810895CF92DF92EF9205
:10125000FF920F931F93CF93DF9388E792E00E9452
:10126000B40682E4E82E81E0F82EC0E0D0E093E7F7
:10127000C92E92E0D92E0AE612E0DF93CF93DF92D7
:10128000CF920E944D0780E792E00E94B406F701DA
:10129000819191917F010E94691D9F938F931F936C
:1012A0000F930E944D0788E692E00E94B4062196B3
:1012B0008DB79EB708960FB6F8949EBF0FBE8DBF30
:1012C000C430D105D1F6DF91CF911F910F91FF90DE
:1012D000EF90DF90CF900895089580915D0108957B
:1012E0009FB7F89410924C019FBF9091D601943013
:1012F00009F049C02091E9002F709091EC0090FD19
:1013000030C090E0922B24E02093E9002091EB0084
:1013100020FF36C02091EE0027FF32C020914A0105
:10132000222321F02091E80025FF2AC010924A01D3
:1013300026E03091E80035FF16C08093F1008091DF
:10134000E80085FD29C08091E80080FFFCCF8091F6
:10135000E8008E778093E8009F709093E90080E02A
:10136000089590E8CFCF3091D601343049F43091D0
:10137000EB0035FD05C0215041F481E080934A0126
:101380009F709093E9008FEF0895EFE9FFE03197A8
:10139000F1F700C00000CDCF8FB7F89421E0209383
:1013A0004C018FBFD9CFCF93DF9300D01F92CDB721
:1013B000DEB79C018091D601843019F593E09983C2
:1013C0003B832A839093E9008FEF9091E80081504E
:1013D00095FD06C095ED9A95F1F700008111F5CFC6
:1013E0008091E80085FF0DC040E050E063E070E0D0
:1013F000CE0101960E94AB0C8091E8008E7780931D
:10140000E8000F900F900F90DF91CF910895CF9348
:10141000DF9300D01F92CDB7DEB72091D6012430E4
:1014200021F522E029839B838A8383E08093E9006E
:101430008FEF9091E800815095FD06C095ED9A954B
:10144000F1F700008111F5CF8091E80085FF0DC014
:1014500040E050E063E070E0CE0101960E94AB0CEA
:101460008091E8008E778093E8000F900F900F90A6
:10147000DF91CF9108959C018091D6018430F9F4D9
:1014800082E08093E9009FEF8091E800915085FD14
:1014900006C085ED8A95F1F700009111F5CF809196
:1014A000E80085FF0CC040E050E065E070E0C90155
:1014B0000E94AB0C8091E8008E778093E80008953D
:1014C000CF93DF93EC018091D601843079F5809140
:1014D0000B01882371F180910C01882351F185E083
:1014E0008093E9008FEF9091E800815095FD06C050
:1014F00095E19A95F1F700008111F5CF8091E80010
:1015000085FF14C040E050E060E170E0CE010E9431
:10151000AB0C8091E8008E778093E80080E1FE01BB
:10152000ADE4B1E001900D928A95E1F7DF91CF91A2
:10153000089581E08093E9008FEF9091E800815059
:1015400095FD06C095ED9A95F1F700008111F5CF54
:101550008091E80085FFEACF40E050E068E070E06D
:10156000D5CF86ED92E00E94B4068091D50181111D
:1015700009C00E94380E0E94950E8091E20084609E
:101580008093E200089582ED92E00E94B4061092EA
:10159000D50108958EEC92E00C94B40620914B0195
:1015A0002F5F822F62E30E947C2A992319F02093F7
:1015B0004B01089510924B0180914C018823E9F072
:1015C0008091D6018430B9F49091E9009F708091A8
:1015D000EC0080FD13C080E0892B94E09093E9003B
:1015E0009091EB0090FF04C09091EE0097FD0AC02F
:1015F0008F708093E90010924C01089580E8ECCF41
:101600001092F1009091E80095FDFACF9091E800DA
:1016100090FFEECF9091E8009E779093E800E8CF9E
:1016200042E061EC81E00E94B50D42E061EC82E0B5
:101630000E94B50D42E061EC83E00E94B50D42E2EC
:1016400061EC84E00E94B50D42E161EC85E00C9410
:10165000B50D8091D801833009F455C030F4813044
:1016600071F1823009F491C008958A3009F47DC087
:101670008B3009F463C0893009F044C08091D701F0
:10168000813209F03FC08091DB019091DC0100972D
:1016900011F00497B9F58091E800877F8093E80006
:1016A0008091E80082FF2AC08091F10080935D0163
:1016B0008091E8008B778093E8000C94EA0D80918C
:1016C000D701813AF9F48091E800877F8093E800A0
:1016D0008091DB019091DC01892B61F460E18DE464
:1016E00091E070E00E94FA0C8091E8008B77809383
:1016F000E800089560E080E090E0F3CF8091D601AB
:101700008111CECF08958091D701813AD9F7809188
:10171000DB019091DC01892BA9F78091E800877F9C
:101720008093E8008091E80080FFFCCF80910B015E
:101730008093F1008091E8008E77BDCF8091D70132
:10174000813201F78091DB019091DC01892BD1F688
:101750008091E800877F8093E8000E94EA0D8091E5
:10176000D90180930B010C940C178091D701813221
:1017700049F68091E800877F8093E8000E94EA0D97
:101780008091DA0180935E0108958091D701813ABA
:1017900009F0B8CF8091E800877F8093E8008091BE
:1017A000E80080FFFCCF80915E01C2CF08950C94C9
:1017B000D60B0C94D60B8AEC92E00E94B4060C94E3
:1017C000D60B0E94911D8091D401882329F00E949C
:1017D000BD1D81110C94950C089584B7877F84BF3B
:1017E0000FB6F894A895809160008861809360009E
:1017F000109260000FBE90E080E80FB6F8948093DE
:101800006100909361000FBE0E94D90B0E94AA1143
:101810000E94380E0E94950E8091E20084608093B1
:10182000E20080E799E00E944C1D78948091D601F7
:101830008430E1F785EB92E00E94B4060E94AC117F
:1018400081E091E00E94191184EA92E00E94B406BE
:101850000E94D70B8091D601853019F00E94B211F9
:10186000F9CF80EA92E00E94B4060E94E10BF2CF29
:101870000C94D21D86EC92E00E94B4060C94380CB5
:10188000292F33272330310579F158F421303105E0
:10189000F1F02230310519F180E090E020E030E0F5
:1018A0001AC02132310599F122323105A9F765308C
:1018B00098F770E0FB01EE0FFF1FE65EFE4F208100
:1018C00031816B5E7E4FFB01808190E004C082E13C
:1018D00090E027E933E0FA013183208308958DE811
:1018E00090E02AE033E0F7CF99278130910561F04D
:1018F00028F0029789F6EAEDF2E002C0E6E0F3E0B4
:10190000849190E09F01E7CFECEFF2E0F9CF6530F2
:1019100008F0C2CFE62FF0E0EE0FFF1FEC5DFE4FA8
:101920002081318189E090E0D6CF80E189BD82E1DC
:1019300089BD09B400FEFDCF8091D8008F7D8093D2
:10194000D8008091E00082608093E0008091E00008
:1019500081FDFCCF0895AF92BF92DF92EF92FF928C
:101960000F931F93CF93DF93EC018B017A010E94B9
:10197000090ED82E811124C0E114F10439F0F701C9
:1019800080819181081B190BC80FD91FA12CB12C84
:1019900001151105A9F08091E80085FD22C0809114
:1019A000E8008E778093E800E114F104A1F0F701DC
:1019B00080819181A80EB91EB182A08285E0D82EC7
:1019C0008D2DDF91CF911F910F91FF90EF90DF90C0
:1019D000BF90AF9008950E94090E8823C9F2D82EB7
:1019E000EFCF89918093F10001501109FFEFAF1AF9
:1019F000BF0ACECF2091DD013091DE0126173707D7
:101A0000A8F06115710529F42091E8002E77209344
:101A1000E800FC0120E06115710551F4211108C0B6
:101A20008091E80082FF33C080E00895B901F1CFD2
:101A30008091D6018823B9F18530B9F18091E80011
:101A400083FD2FC08091E80082FDEACF8091E800FD
:101A500080FFE1CF2091F3008091F20090E0922B83
:101A60006115710519F08830910550F021E0089753
:101A700009F020E08091E8008E778093E800CBCFDA
:101A800021912093F100615071090196E9CF809175
:101A9000D601882341F0853041F08091E80083FF32
:101AA000BFCF81E0089582E0089583E008952091FA
:101AB000DD013091DE0126173707A8F061157105A9
:101AC00029F42091E8002E772093E800FC0120E023
:101AD0006115710551F4211108C08091E80082FF61
:101AE00034C080E00895B901F1CF8091D6018823F8
:101AF000C1F18530C1F18091E80083FD30C0809153
:101B0000E80082FDEACF8091E80080FFE1CF2091DC
:101B1000F3008091F20090E0922B6115710519F0AD
:101B20008830910550F021E0089709F020E080917D
:101B3000E8008E778093E800CBCF24912093F100CA
:101B40003196615071090196E8CF8091D6018823C2
:101B500041F0853041F08091E80083FFBECF81E005
:101B6000089582E0089583E00895982F973028F033
:101B70008F708093E90081E008959093E9009817B1
:101B800051F07091EC002091ED005091F00021FD9A
:101B900006C09F5FEBCF242F762F50E0F8CF309117
:101BA000EB003E7F3093EB003091ED003D7F3093B2
:101BB000ED003091EB0031603093EB007093EC005E
:101BC0002093ED005093F0002091EE0027FDE1CF2F
:101BD00080E008958091D70187FF13C08091E800CD
:101BE00082FF06C08091E8008B778093E80004C0F4
:101BF0008091D6018111F2CF08958091D60188237A
:101C0000D9F38091E80080FFF8CF8091E8008E77CB
:101C1000ECCF2091E4003091E50085E69091EC0056
:101C200090FD20C09091E80092FD20C09091D601D7
:101C3000992391F0953091F09091EB0095FD10C0B3
:101C40004091E4005091E5004217530739F3815069
:101C50009A0121F784E0089582E0089583E00895D1
:101C600081E008959091E80090FFE0CF80E0089532
:101C70000E94A60E0E94AE0EE0EEF0E08081816030
:101C80008083E8EDF0E080818F77808319BCA7ED39
:101C9000B0E08C918E7F8C9380818F7E80831092B8
:101CA000D50108950F931F93CF93DF930E94A60E43
:101CB0000E94AE0EC8EDD0E088818F77888388813E
:101CC0008068888388818F7D888319BC1092D601B3
:101CD0001092D2011092D4011092D30100EE10E0C4
:101CE000F80180818B7F808388818160888342E0D6
:101CF00060E080E00E94B50DE1EEF0E080818E7F33
:101D00008083E2EEF0E08081816080838081886062
:101D10008083F80180818E7F8083888180618883C1
:101D2000DF91CF911F910F910895E8EDF0E0808150
:101D30008F7E8083E7EDF0E080818160808384E0A6
:101D400082BF81E08093D5010C94520EE8EDF0E063
:101D500080818E7F80831092E20008951092DA00D5
:101D60001092E10008951F920F920FB60F92112466
:101D70002F933F934F935F936F937F938F939F9393
:101D8000AF93BF93EF93FF938091E10082FF0BC06D
:101D90008091E20082FF07C08091E1008B7F8093F9
:101DA000E1000E94CE0A8091DA0080FF19C0809184
:101DB000D80080FF15C08091DA008E7F8093DA0012
:101DC0008091D90080FF94C080E189BD82E189BD06
:101DD00009B400FEFDCF81E08093D6010E94B10AD4
:101DE0008091E10080FF19C08091E20080FF15C062
:101DF0008091E2008E7F8093E2008091E20080611A
:101E00008093E2008091D80080628093D80019BC52
:101E100085E08093D6010E94DB0B8091E10084FF76
:101E200029C08091E20084FF25C080E189BD82E164
:101E300089BD09B400FEFDCF8091D8008F7D8093CD
:101E4000D8008091E1008F7E8093E1008091E200D4
:101E50008F7E8093E2008091E20081608093E200B7
:101E60008091D201882309F449C084E08093D6018F
:101E70000E943A0C8091E10083FF29C08091E2002A
:101E800083FF25C08091E100877F8093E10082E09D
:101E90008093D6011092D2018091E1008E7F8093D1
:101EA000E1008091E2008E7F8093E2008091E20069
:101EB00080618093E20042E060E080E00E94B50D26
:101EC0008091F00088608093F0000E94CA0AFF9120
:101ED000EF91BF91AF919F918F917F916F915F91A2
:101EE0004F913F912F910F900FBE0F901F9018951B
:101EF00019BC1092D6010E94C30A72CF8091E300F0
:101F000087FD02C081E0B2CF83E0B0CF1F920F9275
:101F10000FB60F9211242F933F934F935F936F93BC
:101F20007F938F939F93AF93BF93CF93EF93FF9341
:101F3000C091E900CF708091EC001092E90080918F
:101F4000F000877F8093F00078940E94C20F109277
:101F5000E9008091F00088608093F000C093E90070
:101F6000FF91EF91CF91BF91AF919F918F917F9111
:101F70006F915F914F913F912F910F900FBE0F90F6
:101F80001F9018951F93CF93DF93CDB7DEB7AA9715
:101F90000FB6F894DEBF0FBECDBFE7EDF1E0809144
:101FA000F100819321E0EF3DF207C9F70E94290B70
:101FB0008091E80083FF44C08091D7019091D801BF
:101FC000492F50E04A30510508F03AC0FA01E55176
:101FD000F04F0C949C2AF50F1910201019102010A6
:101FE000741097102010EC10F910803879F08238B6
:101FF00039F58091DB018F708093E9008091EB00CF
:1020000085FB882780F91092E90006C08091D301F2
:102010009091D401911182609091E800977F909304
:10202000E8008093F1001092F1008091E8008E7733
:102030002DC0282F2D7F21F48823D1F0823059F133
:102040008091E80083FF0AC08091E800877F809339
:10205000E8008091EB0080628093EB00AA960FB6B7
:10206000F894DEBF0FBECDBFDF91CF911F910895D1
:102070008091D901813021F7933009F080E080937D
:10208000D4011092E9008091E800877F8093E800F6
:102090000E94EA0DD5CF8091D9018111F2CF8091B4
:1020A000DB018F7069F28093E9002091EB0020FF43
:1020B000E8CF933031F48091EB0080628093EB00A5
:1020C000E0CF9091EB0090619093EB0021E030E045
:1020D00001C0220F8A95EAF72093EA001092EA00E5
:1020E0008091EB008860EACF8111AACF1091D901CD
:1020F0001F778091E3008078812B8093E3008091AB
:10210000E800877F8093E8000E94EA0D8091E80054
:1021100080FFFCCF8091E30080688093E300111181
:1021200004C082E08093D6018BCF83E0FBCF805840
:10213000823008F085CF8091D9019091DA018C3DF1
:1021400023E09207A1F583E08A838AE289834FB76F
:10215000F894DE01139620E03EE051E2E32FF0E038
:1021600050935700E49120FF03C0E295EF703F5F6A
:10217000EF708E2F90E0EA30C0F0C7968D939D935C
:102180002F5F243159F74FBF8091E800877F8093FC
:10219000E8006AE270E0CE0101960E94FA0C80919C
:1021A000E8008B778093E8004BCFC096E7CFAE0175
:1021B0004F5F5F4F6091DB010E94400CBC01892B97
:1021C00009F43ECF9091E800977F9093E8008981D1
:1021D0009A810E94570DE3CF803809F031CF80916A
:1021E000E800877F8093E8008091D2018093F1001E
:1021F0001CCF811125CF9091D901923008F020CFCA
:102200008091E800877F8093E8009093D2010E943C
:10221000EA0D8091D201882311F084E005C08091FD
:10222000E30087FDFACF81E08093D6010E94100B76
:1022300007CF90936401809363010895E091630157
:10224000F0916401309721F00190F081E02D099424
:1022500080E00895EF92FF921F93CF93DF93F82EC3
:10226000192FE0916301F09164013097A9F1028088
:10227000F381E02D09958091C10182FF2DC080FF7F
:1022800004C08FEC94E00E94B406CF2DD12F10E152
:1022900089ECE82E84E0F82E8091C10180FF0BC00C
:1022A00088811F928F93FF92EF920E944D070F90AB
:1022B0000F900F900F90115021961111EDCF80913A
:1022C000C10180FF09C087EC94E0DF91CF911F919D
:1022D000FF90EF900C94B406DF91CF911F91FF9087
:1022E000EF900895E0916301F0916401309721F03F
:1022F0000480F581E02D09940895209161013091C9
:1023000062012817390771F090936201809361018F
:10231000E0916301F0916401309721F00680F7812C
:10232000E02D0994089520915F01309160012817F4
:10233000390771F09093600180935F01E091630130
:10234000F0916401309721F00084F185E02D09942B
:10235000089508950C94A9110E94FD1D0E94CD07B7
:102360000C9410205F926F927F928F929F92AF9207
:10237000BF92CF92DF92EF92FF920F931F93CF9372
:10238000DF9300D000D01F92CDB7DEB70E940708C0
:1023900096E6A92E91E0B92E00E010E088248394FF
:1023A000912C502E802F0E941C097C01F501C190B8
:1023B000D1905F018C159D05B1F40F5F1F4F043064
:1023C000110579F78FEF89838A831B820E94061E8D
:1023D0008160782F9D838C8349815A816B818D81A7
:1023E0000E9484123DC08091C10181FD0E94250997
:1023F00080E090E0CE24DF243401082E02C0660C79
:10240000771C0A94E2F7960126213721232B09F441
:102410005EC089835A82E620F72081E0EF2809F424
:1024200080E08B830E94061E8160782F9D838C83C1
:1024300049815A816B818D810E94841249815A8120
:102440006B817C818D810E947D1D000F111FF80121
:10245000EA59FE4F808191816826792671826082D7
:102460000E947C1D0E9497230E941E11909165017D
:10247000891799F10E941E11809365019091C10105
:102480009570953061F41F928F9381EE94E09F9345
:102490008F930E944D070F900F900F900F90809197
:1024A00065010F900F900F900F900F90DF91CF91DB
:1024B0001F910F91FF90EF90DF90CF90BF90AF9062
:1024C0009F908F907F906F905F900C948E1D0196DF
:1024D0008C30910509F090CF70CF0F900F900F9036
:1024E0000F900F90DF91CF911F910F91FF90EF9080
:1024F000DF90CF90BF90AF909F908F907F906F9024
:102500005F9008950C946C09CF93DF93CDB7DEB73D
:102510002B970FB6F894DEBF0FBECDBF942F4F831D
:10252000252F588769877A878B874A855B85452B56
:1025300039F02F3F19F481E09F3F19F080E001C08E
:1025400081E080FD07C04F81588569857A858B853C
:102550000E947D1DDE01119686E0FD0111928A9593
:10256000E9F785E0FE01379601900D928A95E1F733
:1025700049815A816B817C818D819E810E94BF1926
:102580002B960FB6F894DEBF0FBECDBFDF91CF9173
:102590000895CF93C82F882309F4E0C0823879F4D6
:1025A0000E941E1181FDDAC089E30E944B1C0E942B
:1025B000261D89E30E94981CCF910C94261D833818
:1025C00059F40E941E1180FDC9C083E50E944B1C76
:1025D0000E94261D83E5EECF843859F40E941E1117
:1025E00082FDBCC087E40E944B1C0E94261D87E42C
:1025F000E1CF8CEF8C0F813A48F48C2F0E94002899
:102600008111ACC08C2F0E944B1CD6CF80E28C0F66
:10261000883048F4C77081E001C0880FCA95EAF796
:102620000E94EB1CC9CF8BE58C0F833078F4C53A40
:1026300039F0C63A41F083E890E0CF910C947D11D7
:1026400081E890E0FACF82E890E0F7CF88E58C0F40
:10265000853108F083C0C83A09F441C0C93A09F489
:1026600041C0CA3A09F441C0CB3A09F441C0CC3A5E
:1026700009F441C0CD3A09F441C0CE3A09F441C051
:10268000CF3A09F441C0C13B09F441C0C03B09F451
:1026900041C0C23B09F441C0C33B09F441C0C43B43
:1026A00009F441C0C53B09F441C0C63B09F441C02F
:1026B000C73B09F441C0C83B09F441C0C93B09F418
:1026C00041C0CA3B09F441C0CB3B09F441C0CC3BFB
:1026D00009F441C080E090E0CF910C94931182EE18
:1026E00090E0FACF89EE90E0F7CF8AEE90E0F4CF59
:1026F00085EB90E0F1CF86EB90E0EECF83EB90E0BE
:10270000EBCF84EB90E0E8CF87EB90E0E5CF8CEC6B
:1027100090E0E2CF8DEC90E0DFCF83E891E0DCCF7A
:102720008AE891E0D9CF82E991E0D6CF84E991E0BF
:10273000D3CF81E292E0D0CF83E292E0CDCF84E2AA
:1027400092E0CACF85E292E0C7CF86E292E0C4CFA2
:1027500087E292E0C1CF8AE292E0BECFCF910895A6
:10276000882309F44BC0823871F40E941E1181FF46
:1027700045C089E30E944B1C0E94261D89E30E94EC
:10278000981C0C94261D833859F40E941E1180FF5A
:1027900035C083E50E944B1C0E94261D83E5EFCFC8
:1027A000843859F40E941E1182FF28C087E40E94D9
:1027B0004B1C0E94261D87E4E2CF9CEF980F913AB4
:1027C000F0F290E2980F983050F4877091E001C0D9
:1027D000990F8A95EAF7892F0E94F11CD2CF9BE5C9
:1027E000980F933020F480E090E00C947D11885A8B
:1027F000853120F480E090E00C94931108958823B3
:1028000021F00E94EB1C0C94261D0895882321F0D2
:102810000E94F11C0C94261D0895CF92DF92EF9236
:10282000FF920F931F93CF93DF9300D000D01F929E
:10283000CDB7DEB76C0185E0F601DE01119601909F
:102840000D928A95E1F7F6012081918143815481AF
:10285000452B39F09F3F19F481E02F3F19F080E0BC
:1028600001C081E080FDB9C0F601F280E580E2940C
:102870008FE0E82229839A8389819A810E94091C2A
:102880008C010E94081C0E941A1BE12FE295EF7038
:102890008E2F90E0FC01E15BFB4E0C949C2A5F14B0
:1028A0005F14971497141C154F15ED14ED1466154D
:1028B000ED144A164A16D216ED14ED14E716812FC0
:1028C000807F1F70882311F01295107FFF20B9F0D0
:1028D000112329F0812F0E94FF1C0E94261D802FAA
:1028E0000F900F900F900F900F90DF91CF911F914D
:1028F0000F91FF90EF90DF90CF900C94C912802F32
:102900000E94B013112309F468C0812F0E94051D95
:102910000F900F900F900F900F90DF91CF911F911C
:102920000F91FF90EF90DF90CF900C94261D812F98
:10293000807F1F70803211F01295107F002379F094
:10294000013009F458C0FF2009F464C0EE2059F0AA
:10295000F601858180FFC3CF8F70858304C0FF207F
:1029600029F1E11010C0812F0F900F900F900F9060
:102970000F90DF91CF911F910F91FF90EF90DF901B
:10298000CF900C94FF13F1E0812FEF12EDCF0F9059
:102990000F900F900F900F90DF91CF911F910F919B
:1029A000FF90EF90DF90CF900C94101DE11012C0BB
:1029B0000E94131D812F0F900F900F900F900F907A
:1029C000DF91CF911F910F91FF90EF90DF90CF900B
:1029D0000C94061481E0E812EBCF0F900F900F904B
:1029E0000F900F90DF91CF911F910F91FF90EF907B
:1029F000DF90CF900895FF2049F0E5E0EE1568F3F1
:102A00000E94E81C812309F4AECFD4CFF4E0FE1578
:102A100020F3D0CFEE2071F2802F0F900F900F9007
:102A20000F900F90DF91CF911F910F91FF90EF903A
:102A3000DF90CF900C94B013812F8695869583708C
:102A4000A9F0813051F6FF2039F1C80193700F9041
:102A50000F900F900F900F90DF91CF911F910F91DA
:102A6000FF90EF90DF90CF900C949311FF2089F0AE
:102A7000C80193700F900F900F900F900F90DF91FF
:102A8000CF911F910F91FF90EF90DF90CF900C941A
:102A90007D1180E090E0EECF80E090E0D8CF802FF5
:102AA000FF2089F00E941E220F900F900F900F9030
:102AB0000F90DF91CF911F910F91FF90EF90DF90DA
:102AC000CF900C940A230E948622EECF812F837030
:102AD00009F06CC0F11081CF202F22952695277028
:102AE000220F220F602F6F70C62ED12CE12CF12CFB
:102AF000022E04C0CC0CDD1CEE1CFF1C0A94D2F785
:102B000004FF2AC06FE070E080E090E004C0660F30
:102B1000771F881F991F2A95D2F760957095809529
:102B200090951695169513701230D1F060F56C29BA
:102B30007D298E299F29113051F10F900F900F9010
:102B40000F900F90DF91CF911F910F91FF90EF9019
:102B5000DF90CF900C942F1B60E070E0CB01E1CFB1
:102B60006C297D298E299F290F900F900F900F902F
:102B70000F90DF91CF911F910F91FF90EF90DF9019
:102B8000CF900C94411B0E942F1BC701B6010F90E0
:102B90000F900F900F900F90DF91CF911F910F9199
:102BA000FF90EF90DF90CF900C941D1BFF2009F455
:102BB00045C0812F8170882309F40FCF202F2295E3
:102BC00026952770220F220F602F6F70C62ED12CF2
:102BD000E12CF12C022E04C0CC0CDD1CEE1CFF1CE1
:102BE0000A94D2F704FF2CC06FE070E080E090E020
:102BF00004C0660F771F881F991F2A95D2F760952A
:102C00007095809590951695169513701230E1F099
:102C100070F56C297D298E299F29113061F10F9063
:102C20000F900F900F900F90DF91CF911F910F9108
:102C3000FF90EF90DF90CF900C94E41B8695BBCF74
:102C400060E070E0CB01DFCF6C297D298E299F29C0
:102C50000F900F900F900F900F90DF91CF911F91D9
:102C60000F91FF90EF90DF90CF900C94F61B0E9495
:102C7000E41BC701B6010F900F900F900F900F90BB
:102C8000DF91CF911F910F91FF90EF90DF90CF9048
:102C90000C94D21B003F91F148F4003E10F5FF2048
:102CA00009F47DC0EE2009F447C019CE023F09F4B3
:102CB00054C008F43FC0033F91F7FF2009F460C0FF
:102CC000812F8F710F900F900F900F900F90DF91C9
:102CD000CF911F910F91FF90EF90DF90CF900C94C8
:102CE000581B0F70812F8F71FF2021F00E946D1BE8
:102CF000802F3ACE0E948E1B802F5DCEFF20A9F040
:102D0000F4E0FE1508F469CE812F8F710F900F90BB
:102D10000F900F900F90DF91CF911F910F91FF9027
:102D2000EF90DF90CF900C94B11B85E08E1508F4E6
:102D300054CEEACFFF2099F0812F8F710F900F9022
:102D40000F900F900F90DF91CF911F910F91FF90F7
:102D5000EF90DF90CF900C946D1BFF2069F3812FD3
:102D60008F710F900F900F900F900F90DF91CF9178
:102D70001F910F91FF90EF90DF90CF900C948E1BDE
:102D80000F900F900F900F900F90DF91CF911F91A8
:102D90000F91FF90EF90DF90CF900C94531BEE209B
:102DA000F1F23ACE412F4F70602FC6010E945607B4
:102DB0000F900F900F900F900F90DF91CF911F9178
:102DC0000F91FF90EF90DF90CF900C946D1A412FF0
:102DD0004F70602FC6010F900F900F900F900F90C3
:102DE000DF91CF911F910F91FF90EF90DF90CF90E7
:102DF0000C94B41F0E940D1D0E94DA1C0E94261D17
:102E00000E943A240E940A2380E090E00E947D11F3
:102E100080E090E00C9493110E94FC1C0C94FA1634
:102E20000E94091C292F22952F702C3058F42A302B
:102E300018F42250223050F4803E10F0803F31F4DC
:102E400081E008952C3021F02F3011F080E00895BA
:102E500093FB882780F90895CF93DF9300D000D0AB
:102E60001F92CDB7DEB70F900F900F900F900F907D
:102E7000DF91CF910895CF93DF9300D000D000D0A1
:102E8000CDB7DEB726960FB6F894DEBF0FBECDBF26
:102E9000DF91CF9108951F93CF93DF93C0916E017F
:102EA00016E080916F01C81304C0DF91CF911F918C
:102EB0000895D0E01C9FF0011D9FF00D1124E059F2
:102EC000FE4F4081518162817381848195810E948E
:102ED0003B172196C770E5CF4091A0015091A10109
:102EE0006091A2017091A3018091A4019091A5012C
:102EF0000C943B171F93CF93DF938091A50182958C
:102F00008F70D1F48091A2018823B1F080916E017D
:102F1000D0916F01B091A001C091A1014091A30196
:102F20005091A401A1E0BF3F09F0A0E0BA01609573
:102F3000709516E08D1304C0DF91CF911F91089515
:102F400041155105D9F1CF3FD9F120E090E020FDA6
:102F50003CC0189FF001199FF00D1124E059FE4F5D
:102F600021812C1332C020812B132FC022812111EB
:102F70002CC0238134812417350720F1241B350B05
:102F8000283C310510F52091A5012F702061209378
:102F9000A50126E0289FF001299FF00D1124EB5890
:102FA000FE4F80818F708061808380EA91E00E9473
:102FB0000D14DF91CF911F910C944B1721E0C6CFD8
:102FC0002A2FC4CF260F371FDBCF01968770B2CFD1
:102FD000AF92BF92CF92DF92EF92FF920F931F9327
:102FE000CF93DF93CDB7DEB761970FB6F894DEBF0E
:102FF0000FBECDBF8C0185E0F801DE011D9601906A
:103000000D928A95E1F7D8014C9111965C91119738
:103010001296EC903091A0016091A1018091A301E2
:103020009091A401009739F06F3F19F421E03F3FE0
:1030300019F020E001C021E0B22FB170BB2E20FDBD
:1030400090C1F801C380D480A090A201AA2009F405
:1030500032C12091A501C816D90610F1D601A81BCE
:10306000B90BCD01FF24F394883C9105F0F0F12CCD
:10307000207F09F0E9C07C2DD98AC88A6E2D898904
:103080000E942C1780EA91E00E940D14E0EAF1E022
:1030900086E0DF011D928A95E9F70E946C171EC039
:1030A000809590958C0D9D1DDDCF822F807F09F03E
:1030B00084C0651325C0341323C0FE2CE11020C04A
:1030C0002F7020612093A5010E946C1780EA91E087
:1030D0000E940D148091A501F80185838F2D6196C2
:1030E0000FB6F894DEBF0FBECDBFDF91CF911F9119
:1030F0000F91FF90EF90DF90CF90BF90AF90089529
:10310000CD2839F05F3F19F481E04F3F19F080E09E
:1031100001C081E080FD24C081E08E25F82FF17090
:10312000FF2E80FF3FC080916E0120916F0136E03D
:10313000821318C04D875E878D859E850E94091C6D
:10314000292F22952F70223008F1243030F59F70FE
:1031500009F1D80115969C91907FE1F4FB2CBECF2C
:1031600080E0DCCF90E0389FF001399FF00D112412
:10317000E059FE4F6181561306C06081641303C09D
:103180006281E6120FC001968770D2CF9F7011F056
:10319000882321F3805E883008F3C8010E940D1453
:1031A000BF2CDCCFFE2CEE2009F498CF8091A50136
:1031B00081608093A501F12C91CF651314C0341365
:1031C00012C0E11010C08091A501F8018583C801EB
:1031D0000E940D1486E0F801A0EAB1E001900D9282
:1031E0008A95E1F75ACF4D875E878D859E850E942F
:1031F0001017882309F4BFC0EE2009F4BCC0209149
:10320000A501822F82958F7090E0029774F08091D3
:10321000A0019091A10198878F831986DB86CA86C9
:103220002C87CE0107960E940D1486E0F801A0EAD3
:10323000B1E001900D928A95E1F70E947A170E9401
:103240006C17FF24F3944ACF651314C0341312C0D3
:10325000E11010C08091A501F8018583C8010E948A
:103260000D1486E0E0EAF1E0DF011D928A95E9F7AE
:10327000FA2C34CF4D875E878D859E850E9410176E
:10328000882309F478C0EE2009F475C02091A501C7
:10329000822F82958F7090E002973CF28091A0017E
:1032A0009091A1019A8389831B82DD82CC822E8337
:1032B000CE010196B8CFC816D90680F0F601E81BFA
:1032C000F90BCF01883C910570F0F12C7C2DD98A47
:1032D000C88A6E2D89890E942C17D8CE809590952A
:1032E0008C0D9D1DEFCFFE2CEE2009F444C065131C
:1032F00027C0341325C08091A50180FD18C0982FE8
:1033000092959F70292F30E02115310581F0D80169
:1033100015968C9315972F30310509F458CF9F5F80
:103320009295907F8F70892B15968C9350CF86E065
:10333000F801A0EAB1E001900D928A95E1F7CECEB6
:103340004D875E878D859E850E94101781116DCFF8
:103350008091A50181608093A501C8010E940D1490
:10336000BDCEEE2041F04D875E878D859E850E9403
:10337000101781115ACFC8010E940D1462CF1F93FC
:10338000CF93DF93CDB7DEB72C970FB6F894DEBF9F
:103390000FBECDBF4F83588769877A878B879C87FD
:1033A000CE0107960E94E817882349F19F818885FE
:1033B0002A853B85232B39F08F3F19F481E09F3F0D
:1033C00019F080E001C081E080FD08C04F81588580
:1033D00069857A858B859C850E943B1716E08091D4
:1033E0006E0190916F01891348C02C960FB6F89426
:1033F000DEBF0FBECDBFDF91CF911F91089586E054
:10340000FE013796DE01119601900D928A95E1F743
:10341000FF81E8856A857B856115710539F0EF3F8D
:1034200019F481E0FF3F19F080E001C081E080FDE8
:10343000D5CF20916F0130E0C9010196877099279F
:1034400040916E0150E084179507C9F1F983EA8332
:103450007D836C8396E0929FD001939FB00D1124E1
:10346000A059BE4FFE01319601900D929A95E1F759
:1034700080936F010E944B17B1CF819FC00111242F
:1034800080599E4F0E94E817882309F4AECFE0913F
:103490006E011E9FF0011124E059FE4F40815181C1
:1034A00062817381848195810E943B1780916E01B6
:1034B00090E001968770992780936E0190CF0E94CB
:1034C0000C1710926F0110926E01E0EAF1E086E0B5
:1034D000DF011D928A95E9F788CFDF92EF92FF9284
:1034E0000F931F93CF93DF938C01892BB1F0E12CC5
:1034F000F12CDD24D394E8012196F80184918537DD
:1035000009F469C090F4843708F057C0843008F09B
:103510006EC0813009F18230D9F1DF91CF911F91D6
:103520000F91FF90EF90DF900895883709F45CC009
:1035300058F4863709F454C0873779F78E2D0E94E6
:10354000F91C0E94261D1FC09CE7980F903728F792
:103550008F770E94B01317C00E5F1F4FFE0184913A
:1035600090E2980F983060F48770FD2D01C0FF0F36
:103570008A95EAF78F2F0E94FF1C0E94261D02C029
:103580000E94C912E8018F2D811134C08E01B3CF82
:103590000E5F1F4FFE01849190E2980F983050F417
:1035A0008770FD2D01C0FF0F8A95EAF78F2F0E94CB
:1035B000051DE3CF0E94B013E5CF0E5F1F4FFE0144
:1035C000C491CC23F9F28FE99FE00197F1F700C095
:1035D0000000C150F6CF0E5F1F4FFE01F490D2CF16
:1035E0000E94E81CE82ECFCF0E94FC1CAACF0E94AC
:1035F000C912C9CFEFE9FFE03197F1F700C0000031
:103600008150C2CF6093AA017093AB018093AC014B
:103610009093AD010E948C1D0C94FA166093A60144
:103620007093A7018093A8019093A9010E948D1D1A
:103630000C94FA1608950C94021B0F931F9300919B
:10364000AA011091AB012091AC013091AD01602B2A
:10365000712B822B932B1F910F910C94021B0F93B4
:103660001F930091AA011091AB012091AC01309100
:10367000AD0160237123822393231F910F910C943A
:10368000021B0F931F930091AA011091AB0120918F
:10369000AC013091AD0160277127822793271F91DC
:1036A0000F910C94021B60E070E0CB010C940E1B98
:1036B0000F931F9341E050E060E070E08A019B01AE
:1036C00004C0000F111F221F331F8A95D2F7C901B2
:1036D000B8011F910F910C940E1B0F931F9341E0A3
:1036E00050E060E070E004C0440F551F661F771F74
:1036F0008A95D2F78091A6019091A701A091A80187
:10370000B091A9018A019B01082B192B2A2B3B2B75
:10371000C901B8011F910F910C940E1B0F931F93B9
:1037200041E050E060E070E004C0440F551F661FA8
:10373000771F8A95D2F7CB01BA0160957095809575
:1037400090950091A6011091A7012091A8013091B8
:10375000A90160237123822393231F910F910C945D
:103760000E1B0F931F9341E050E060E070E004C037
:10377000440F551F661F771F8A95D2F78091A601C7
:103780009091A701A091A801B091A9018A019B0184
:10379000082719272A273B27C901B8011F910F9134
:1037A0000C940E1B0F931F930091A6011091A7017B
:1037B0002091A8013091A901602B712B822B932BB2
:1037C0001F910F910C940E1B0F931F930091A60154
:1037D0001091A7012091A8013091A90160237123C4
:1037E000822393231F910F910C940E1B0F931F9311
:1037F0000091A6011091A7012091A8013091A90183
:1038000060277127822793271F910F910C940E1B1D
:103810000895CF92DF92EF92FF920F931F93CF9371
:10382000DF938C01C090A601D090A701E090A80181
:10383000F090A9018091AA019091AB01A091AC01F7
:10384000B091AD01C82AD92AEA2AFB2ACFE1D0E0FB
:10385000D701C6010C2E04C0B695A79597958795FC
:103860000A94D2F780FF10C0B8018C2F0E944B1F22
:103870008130910549F0DF91CF911F910F91FF9019
:10388000EF90DF90CF900895219710F7B80180E076
:103890000E944B1FF0CF90910B01992361F1909101
:1038A0000C01992341F1982F9695969596959F3006
:1038B00088F4E0910D01F0910E01E90FF11D877080
:1038C00021E030E001C0220F8A95EAF78181822B46
:1038D000818308959091C10190FF22C01F928F9320
:1038E0008AE095E09F938F930E944D070F900F9071
:1038F0000F900F90089520910D0130910E01F90164
:1039000032969FEF40E05191851751F09F3F19F497
:10391000511101C0942F4F5F4E30A9F79F3F09F41A
:103920000895290F311D97FD3A95F9018283089575
:1039300090910B01992371F190910C01992351F110
:10394000982F9695969596959F3098F4E0910D0155
:10395000F0910E01E90FF11D282F277081E090E012
:1039600001C0880F2A95EAF7809591818923818388
:1039700008959091C10190FF1CC01F928F938CEE0F
:1039800094E09F938F930E944D070F900F900F909C
:103990000F900895E0910D01F0910E019F01225FBB
:1039A0003F4F9281891301C012823196E217F307CB
:1039B000C1F7089581E090E0E0910D01F0910E01D2
:1039C000E80FF91F1082019680319105A9F708953B
:1039D0008091C00108959091C001892B8093C0010E
:1039E0000895982F90958091C00189238093C001FC
:1039F00008958093C00108951092C0010895909198
:103A0000BF01892B8093BF010895982F90958091D5
:103A1000BF0189238093BF0108951092BF010895CB
:103A20008093AE0108951092AE01089520910D018A
:103A300030910E01F9013196205F3F4F80E0919166
:103A400091118F5FE217F307D1F70895E0910D010F
:103A5000F0910E018091C0018083E0910D01F09101
:103A60000E0180819091BF01892B80839091AE01DE
:103A7000992361F0E0910D01F0910E018081892B75
:103A800080830E94161D81111092AE0180910D015C
:103A900090910E010C942A11909339018093380172
:103AA0000895829590E09C01220F331F220F331F4F
:103AB0002C7C95958795959587958373282B30E079
:103AC000C901880F991F8A7A359527952575822B0C
:103AD0000895CF93DF93D92F0E94511DC82F8D2FAA
:103AE0000E94511D2C2F30E0322F2227A901482B94
:103AF000CA01DF91CF9108950895CF93DF9300D04D
:103B000000D01F92CDB7DEB70F900F900F900F909F
:103B10000F90DF91CF910895089508950C9482122B
:103B200008958091D601843021F11092C20120E4E1
:103B300088E190E00FB6F894A895809360000FBEDE
:103B40002093600083B7817F846083BF83B78160E7
:103B500083BF7894889583B78E7F83BF0FB6F89420
:103B6000A895809160008861809360001092600049
:103B70000FBE089508950C94BA1DCF930E94BB1DEB
:103B80000E9407080E94BA1DC0E08C2F0E941C09E9
:103B9000892B31F4CF5FC430C1F780E0CF91089515
:103BA00081E0FCCF0C940C171F920F920FB60F926E
:103BB00011248F939F93AF93BF938091C201811182
:103BC00013C08091C3019091C401A091C501B0912F
:103BD000C6014196A11DB11D8093C3019093C401FC
:103BE000A093C501B093C601BF91AF919F918F91F2
:103BF0000F900FBE0F901F90189582E084BD93E048
:103C000095BD9AEF97BD80936E0008952FB7F894F5
:103C10008091C3019091C401A091C501B091C601EA
:103C20002FBF08952FB7F8946091C3017091C4011C
:103C30008091C5019091C6012FBF0895CF92DF9268
:103C4000EF92FF920F931F932FB7F8944091C30107
:103C50005091C4016091C5017091C6012FBF6A01E6
:103C60007B01EE24FF248C0120E030E0C016D10659
:103C7000E206F30650F0481B590BCA011F910F9141
:103C8000FF90EF90DF90CF90089541505109F3CF0E
:103C90001F920F920FB60F9211248F939F93AF93A1
:103CA000BF938091C3019091C401A091C501B091CF
:103CB000C6010196A11DB11D8093C3019093C4015B
:103CC000A093C501B093C601BF91AF919F918F9111
:103CD0000F900FBE0F901F9018950E94380EF89409
:103CE0002FEF87EA91E6215080409040E1F700C035
:103CF000000087E090EBDC018093E0019093E1010C
:103D0000A093E201B093E3019CE088E10FB6F89440
:103D1000A895809360000FBE90936000FFCF8D3B0D
:103D200060F4883A70F5853A18F58430F8F48130FB
:103D300009F469C080E090E00895883E90F4803EE8
:103D4000A8F48F3BB9F70E940C172FEF80E792E0A1
:103D5000215080409040E1F700C000000E946D1E9D
:103D6000E9CF803F38F390E09065089590E00895A2
:103D7000853A09F44BC0863A09F44BC083E890E4D5
:103D80000895883A09F448C0893A09F448C08A3A43
:103D900009F448C08B3A09F448C08C3A09F448C089
:103DA0008D3A09F448C08E3A09F448C08F3A09F4B4
:103DB00048C0813B09F448C0803B09F448C0823BBD
:103DC00009F448C0833B09F448C0843B09F448C067
:103DD000853B09F448C0863B09F448C0873B09F499
:103DE00048C0883B09F448C0893B09F448C08A3B75
:103DF00009F448C08B3B09F448C08C3B09F448C027
:103E000080E094E4089581E090E0089581E890E4F2
:103E1000089582E890E4089582EE94E4089589EE8E
:103E200094E408958AEE94E4089585EB94E408956B
:103E300086EB94E4089583EB94E4089584EB94E492
:103E4000089587EB94E408958CEC94E408958DEC48
:103E500094E4089583E895E408958AE895E4089544
:103E600082E995E4089584E995E4089581E296E471
:103E7000089583E296E4089584E296E4089585E245
:103E800096E4089586E296E4089587E296E408951C
:103E90008AE296E408950E94AD07803ED8F4803C03
:103EA00090F5813309F454C048F4893209F44AC0CA
:103EB0008A3209F453C00E948F1E0895893331F16C
:103EC000823821F18533B9F78091DF0185FF3EC04B
:103ED00089E2F1CF833E41F160F4803EE9F0823E19
:103EE00051F78091DF0182FF23C084FF1BC080E077
:103EF000E2CF863EF9F0873EF1F68091DF0183FF45
:103F00001DC086EED8CF0E94BD0708959091DF01B5
:103F1000937089F280EECFCF8091DF0180FFFACFDE
:103F200089E3C9CF83EEC7CF8091DF0182FFDDCF68
:103F300082EEC1CF8091DF0183FFE3CF84FDD7CF35
:103F400087EEB9CF8091DF0185FFC2CF85E3B3CF84
:103F50008091DF0186FF06C08AE2ADCF8091DF014C
:103F600086FFFACF81E3A7CF0895BF92CF92DF9269
:103F7000EF92FF920F931F93CF93DF93EC01B12C3D
:103F800001E010E08B2D0E941C097C01C12CD12C7A
:103F9000C8010C2C02C0880F991F0A94E2F78E21E9
:103FA0009F21892BF1F06C2D7B2D80E00E944B1F0F
:103FB0008C179D0759F0292F207E392F307C11F066
:103FC000203A79F490E0C817D90759F481E0DF91DD
:103FD000CF911F910F91FF90EF90DF90CF90BF9006
:103FE00008958FEFC81AD80A8CE0C816D10481F65C
:103FF000B39484E0B812C6CF80E0E9CFCF93DF93CB
:10400000EC018CE290E00E94B51F882329F0CE01DC
:10401000DF91CF910C94B51F80E0DF91CF9108958F
:10402000CF930E947921811102C00E945F218FE20B
:1040300095E00E94B406C5E6C15009F008C188E2C7
:1040400095E00E94B40689E290E00E94FE1F811173
:1040500034C18AE290E00E94FE1F81110E945F211C
:1040600085E090E00E94FE1F81110E946D1E0E945B
:10407000901D0E9484218093C10187E090E00E94FE
:10408000FE1F882391F08BE190E00E94FE1F8823A1
:1040900009F4E6C08091C10181FB992790F921E0E4
:1040A000922790FB81F98093C1018091C1010E9408
:1040B00088210E9496218093DF0180EE90E00E948B
:1040C000FE1F882341F08091DF01982F909590FB8F
:1040D00080F98093DF0189E390E00E94FE1F88232E
:1040E00059F08091DF0181FB992790F921E0922717
:1040F00090FB81F98093DF0182EE90E00E94FE1F29
:10410000882359F08091DF0182FB992790F921E003
:10411000922790FB82F98093DF0186EE90E00E9467
:10412000FE1F882359F08091DF0183FB992790F9C6
:1041300021E0922790FB83F98093DF0183EE90E0EA
:104140000E94FE1F882359F08091DF0184FB99278C
:1041500090F921E0922790FB84F98093DF0185E3B9
:1041600090E00E94FE1F882359F08091DF0185FBBB
:10417000992790F921E0922790FB85F98093DF0140
:1041800081E390E00E94FE1F882359F08091DF01B7
:1041900086FB992790F921E0922790FB86F980937E
:1041A000DF0181E190E00E94FE1F882359F0809199
:1041B000DF0187FB992790F921E0922790FB87F98F
:1041C0008093DF018091DF010E949A218091DF01BD
:1041D00087FB882780F980930C0187E290E00E949A
:1041E000FE1FC82F8EE190E00E94FE1F8111C26069
:1041F0008FE190E00E94FE1F8111C46080E290E098
:104200000E94FE1F8111C86081E290E00E94FE1FA3
:104210008111C06182E290E00E94FE1F8111C062A4
:1042200083E290E00E94FE1F8111C06484E290E06E
:104230000E94FE1F8823D9F1C0688C2F0E94912113
:104240006C2F70E080E090E0CF910C941B1B0E94DB
:1042500007088FE39CE90197F1F700C00000ECCE5E
:104260008EE090E00E94FE1F882351F08091C101F2
:1042700082FB992790F921E0922790FB82F913CFD6
:1042800080E190E00E94FE1F9091C101882351F0CF
:1042900093FB882780F921E0822780FB93F9909394
:1042A000C10103CF892F809580FB90F9F8CFC11110
:1042B000C4CF0E948D21682FC4CFCF9108956DEE99
:1042C0007EEF80E090E00E94D22A60E082E090E001
:1042D0000E94C42A60E083E090E00E94C42A60E06B
:1042E00084E090E00E94C42A60E085E090E00C94B5
:1042F000C42A80E090E00E94BE2A21E08D3E9E4FBD
:1043000009F020E0822F089582E090E00C94B62A14
:10431000682F82E090E00C94C42A83E090E00C9433
:10432000B62A682F83E090E00C94C42A84E090E0E1
:104330000C94B62A682F84E090E00C94C42A8091F3
:10434000C90180FF12C06091120185E0689FB00131
:104350001124759567957595679560387105A8F571
:104360006115710581F581E0089581FF09C06091B3
:10437000120185E0689FB001112475956795EDCF16
:1043800082FF07C06091120185E0689FB00111248F
:10439000E4CF9091CA019923A1F060911101961781
:1043A00088F72091120185E0289F90011124929FA7
:1043B000A001939F500D112470E0CA010E94882A29
:1043C000CCCF65E070E0862F08958FE70895809147
:1043D000C90180FF0CC06091100170E07595679570
:1043E000759567956115710539F581E0089581FF2F
:1043F00006C06091100170E075956795F3CF82FF5C
:1044000008C06091100170E06038710558F38FE7C3
:1044100008958091CA01882369F060910F01861781
:1044200080F790911001899FC001112470E00E94D3
:10443000882AEACF61E070E0862F0895803F31F44A
:104440000E949F2181958093CD010895813F19F4A9
:104450000E949F21F8CF823F31F40E949F218195D5
:104460008093CC010895833F19F40E949F21F8CFD7
:10447000893F29F40E94E7218093CE0108958A3F65
:1044800021F40E94E7218195F7CF8B3F31F40E9400
:10449000E72181958093CF0108958C3F19F40E9404
:1044A000E721F8CF843F31F48091CB018160809384
:1044B000CB010895853F21F48091CB018260F7CF35
:1044C000863F21F48091CB018460F1CF873F21F4B6
:1044D0008091CB018860EBCF883F21F48091CB01A4
:1044E0008061E5CF8D3F31F48091C9018160809377
:1044F000C90108958E3F21F48091C9018260F7CFF0
:104500008F3FB9F78091C9018460F1CF803FC1F43A
:104510008091CD0187FD1092CD018091CC01811158
:104520000EC08091CD0181110AC08091CE01811110
:1045300006C08091CF01811102C01092CA01089576
:10454000813F29F48091CD0118162CF3E6CF90918C
:10455000CC01823F29F497FFE0CF1092CC01DDCF50
:10456000833F19F41916CCF3D8CF893F39F48091E1
:10457000CE01181694F61092CE01CFCF8A3F29F4BF
:104580008091CE0187FFC9CFF6CF8B3F39F4809160
:10459000CF0187FFC2CF1092CF01BFCF8C3F29F44C
:1045A0008091CF011816BCF3B8CF843F31F48091CD
:1045B000CB018E7F8093CB01B0CF853F21F48091DA
:1045C000CB018D7FF7CF863F21F48091CB018B7F8C
:1045D000F1CF873F21F48091CB01877FEBCF883FDC
:1045E00021F48091CB018F7EE5CF8D3F31F4809116
:1045F000C9018E7F8093C90190CF8E3F21F48091B5
:10460000C9018D7FF7CF8F3F09F087CF8091C90116
:104610008B7FF0CF8091C10183FF7EC08BE695E058
:104620000E94B4068091CB011F928F9386E695E09D
:104630009F938F930E944D0784E695E00E94B406F5
:104640008091CC01282F082E000C330B3F938F93C1
:1046500081E695E09F938F930E944D078FE595E04B
:104660000E94B4068091CD01282F082E000C330B38
:104670003F938F938CE595E09F938F930E944D0716
:104680008AE595E00E94B4068091CE01282F082E7D
:10469000000C330B3F938F9387E595E09F938F93A7
:1046A0000E944D0785E595E00E94B4068091CF01F8
:1046B000282F082E000C330B3F938F9382E595E053
:1046C0009F938F930E944D078FE495E00E94B4065C
:1046D0008091CA011F928F938CE495E09F938F93F2
:1046E0000E944D078AE495E00E94B4068091C901BA
:1046F0001F928F9387E495E09F938F930E944D07BD
:1047000084E495E00E94B4068DB79EB74C960FB630
:10471000F8949EBF0FBE8DBF8BEC91E00E9472118A
:104720000E94061E9093C8018093C70108951F93AD
:10473000CF93DF938091C7019091C8010E941E1E04
:10474000AC019091CA019923D1F02091130130E07E
:104750004217530780F08091CC01C091CD01D091D8
:10476000CE011091CF01811111C0C1117FC0D111B3
:104770007DC011117BC0DF91CF911F9108952091D1
:1047800014018AE0289F90011124E2CF9F3F19F085
:104790009F5F9093CA01181624F40E949F21809372
:1047A000CC018091CC0187FF05C00E949F2181959B
:1047B0008093CC011C1624F40E949F218093CD018C
:1047C0008091CD0187FF05C00E949F218195809334
:1047D000CD016091CC01662331F1C091CD01CC2394
:1047E00011F1062E000C770B880B990B0E94832980
:1047F00023E333E343E35FE30E94E7290E944B296D
:104800006093CC016C2FCC0F770B880B990B0E9417
:10481000832923E333E343E35FE30E94E7290E9414
:104820004B296093CD011D1624F40E94E72180934B
:10483000CE018091CE0187FF05C00E94E7218195BE
:104840008093CE01111624F40E94E7218093CF01BA
:104850008091CF0187FF05C00E94E7218195809359
:10486000CF01DF91CF911F910C940A239F3F09F054
:104870008FCFA0CFEBECF1E085E0DF011D928A95B0
:10488000E9F71092CA011092C90108958EE897E0E5
:104890000E94B4061F9281E08F931F9285E08F9350
:1048A00080E497E09F938F930E944D070F900F90A5
:1048B0000F900F900F900F900895833009F445C02A
:1048C00028F4813061F0823049F10895853009F48F
:1048D0006AC008F451C0863009F47CC00895809104
:1048E0001401262F30E0280F311D2F3F310594F49D
:1048F000680F60931401809114011F928F9389E7D0
:1049000096E09F938F930E944D070F900F900F900A
:104910000F9008958FEF80931401EDCF80911301D4
:10492000262F30E0280F311D2F3F310554F4680F3A
:1049300060931301809113011F928F9387E696E095
:10494000E0CF8FEF80931301F5CF80911201262FD6
:1049500030E0280F311D2F3F310554F4680F60936C
:104960001201809112011F928F9384E596E0C9CFC6
:104970008FEF80931201F5CF80911101262F30E047
:10498000280F311D2F3F310554F4680F609311013A
:10499000809111011F928F938FE396E0B2CF8FEF3A
:1049A00080931101F5CF80911001262F30E0280F60
:1049B000311D2F3F310554F4680F60931001809131
:1049C00010011F928F9386E296E09BCF8FEF80932A
:1049D0001001F5CF20910F01862F90E0820F911DDD
:1049E0008F3F910554F4620F60930F0180910F0186
:1049F0001F928F938BE096E084CF8FEF80930F010F
:104A0000F5CF8330C9F128F4813061F0823019F19B
:104A10000895853009F452C008F43FC0863009F487
:104A20005EC0089580911401681790F4861B8093EE
:104A30001401809114011F928F938CEF95E09F9346
:104A40008F930E944D070F900F900F900F90089535
:104A500010921401EECF80911301681750F4861B59
:104A600080931301809113011F928F938AEE95E03A
:104A7000E6CF10921301F6CF80911201681750F41F
:104A8000861B80931201809112011F928F9387EDF4
:104A900095E0D5CF10921201F6CF809111016817E1
:104AA00050F4861B80931101809111011F928F9306
:104AB00082EC95E0C4CF10921101F6CF80911001E5
:104AC000681750F4861B80931001809110011F928B
:104AD0008F9389EA95E0B3CF10921001F6CF8091C1
:104AE0000F01681750F4861B80930F0180910F010E
:104AF0001F928F938EE895E0A2CF10920F01F6CF10
:104B0000CF93C82F1F928F9383E998E09F938F9341
:104B10000E944D0761E070E080E090E004C0660F05
:104B2000771F881F991FCA95D2F70E941B1B0F90F1
:104B30000F900F900F90CF910C940C17CF938B3157
:104B400009F4DAC108F04DC08E3009F4E8C1B8F4B8
:104B5000873009F4BAC148F4863009F4A4C187EA61
:104B60009AE00E94B406C0E03FC2883009F46BC0EE
:104B70008B30A9F78FEB98E00E94B40692C1813187
:104B800009F424C290F4803151F78091C10183FB74
:104B9000992790F921E0922790FB83F98093C10136
:104BA00083FFD0C18FE39CE0A1C1863109F4CDC160
:104BB0008931A9F683E29CE00E94B4068CE09CE077
:104BC0000E94B40681ED9BE00E94B4068AEA9BE055
:104BD0000E94B40685E69BE00E94B4068AE39BE04F
:104BE000CBCF853361F078F4873249F028F48E31E9
:104BF00008F4B5CF8D5104C0893209F0B0CF80E000
:104C00000E9480254EC1833438F48A3308F0F2C103
:104C1000883309F4AFCFA3CF833489F3883409F004
:104C20009ECF0E940C178EE99CE00E94B4069FEF75
:104C300023ED80E3915020408040E1F700C0000068
:104C40000E946D1E2EC183EB9CE00E94B40687E992
:104C50009AE00E94B4060E948D211F928F9384E9EE
:104C60009AE09F938F930E944D0782E99AE00E94F9
:104C7000B4060E948421C82F8FE79AE00E94B406F0
:104C80001F92CF938AE79AE09F938F930E944D07DC
:104C900088E79AE00E94B4068EE69AE00E94B40685
:104CA0008C2F81701F928F938BE69AE09F938F9346
:104CB0000E944D0789E69AE00E94B4068FE59AE0CB
:104CC0000E94B406C1FB882780F91F928F938CE560
:104CD0009AE09F938F930E944D078AE59AE00E9485
:104CE000B4068EE49AE00E94B406C2FB882780F9DD
:104CF0001F928F938BE49AE09F938F930E944D07AE
:104D000089E49AE00E94B40680E49AE00E94B40626
:104D1000C3FBCC27C0F91F92CF938DE39AE09F93FA
:104D20008F930E944D078BE39AE00E94B4060E9485
:104D30009621C82F87E29AE00E94B4061F92CF9373
:104D400082E29AE09F938F930E944D0780E29AE05F
:104D50000E94B40687E09AE00E94B4068C2F81700E
:104D60001F928F9384E09AE09F938F930E944D0748
:104D70008DB79EB780960FB6F8949EBF0FBE8DBFBD
:104D800082E09AE00E94B4068BEE99E00E94B4069D
:104D9000C1FB882780F91F928F9388EE99E09F933B
:104DA0008F930E944D0786EE99E00E94B40684ED31
:104DB00099E00E94B406C2FB882780F91F928F9366
:104DC00081ED99E09F938F930E944D078FEC99E0BE
:104DD0000E94B4068DEB99E00E94B406C3FB8827BD
:104DE00080F91F928F938AEB99E09F938F930E9493
:104DF0004D0788EB99E00E94B4068EEA99E00E9484
:104E0000B406C4FB882780F91F928F938BEA99E040
:104E10009F938F930E944D0789EA99E00E94B40600
:104E200087E999E00E94B406C5FB882780F91F92A4
:104E30008F9384E999E09F938F930E944D0782E9B5
:104E400099E00E94B40686E799E00E94B406C6FB8A
:104E5000882780F91F928F9383E799E09F938F9320
:104E60000E944D0781E799E00E94B40689E699E027
:104E70000E94B406C7FBCC27C0F91F92CF9386E6E9
:104E800099E09F938F930E944D0784E699E00E94DA
:104E9000B4068DB79EB74C960FB6F8949EBF0FBE62
:104EA0008DBFC1E0A1C08091C101817F8E7F8093C1
:104EB000C10188E998E00E94B4068FEA9CE00E9454
:104EC000B40681E08093D101ECCF8091C10180FFD5
:104ED0000BC081E99CE00E94B4068091C101817FF2
:104EE0008E7F8093C101DDCF85E89CE00E94B406EF
:104EF0008091C1018160F5CF8091C10181FB99272B
:104F000090F921E0922790FB81F98093C10181FF04
:104F100003C088E79CE0EACF8AE69CE02DCE809132
:104F2000C10182FB992790F921E0922790FB82F939
:104F30008093C10182FF03C08BE59CE0D7CF8BE457
:104F40009CE01ACE82E39CE017CE8CE29BE00E94AC
:104F5000B4060E941E111F928F9382E19BE09F93E3
:104F60008F930E944D0780910B011F928F938BEFBF
:104F70009AE09F938F930E944D0780915E011F924C
:104F80008F9388EE9AE09F938F930E944D078091B4
:104F90000C011F928F9385ED9AE09F938F930E944F
:104FA0004D070E94121E9F938F937F936F938EEBFA
:104FB0009AE09F938F930E944D078DB79EB74696B8
:104FC0000FB6F8949EBF0FBE8DBF6BCF0E940C171B
:104FD000C0910C0181E0C827C0930C01CC2339F0AB
:104FE00084EB9AE00E94B4068C2FCF91089589EA51
:104FF0009AE0C2CD895304CE80E008950C94FC273A
:10500000CF93C82F8091D1018130D1F038F0823018
:1050100009F44DC01092D10180E010C0E0910D0163
:10502000F0910E0180818232B9F78C2F0E94FE2709
:1050300081111EC08C2F0E949E258170CF910895F2
:10504000E0910D01F0910E018081823271F38C2F7D
:105050000E94FC2781111BC0C431D9F060F4CB3011
:1050600071F0C031D1F089E898E00E94B40613C015
:1050700081E090E0E2CFC93261F0C833A1F788E95E
:1050800098E00E94B4068FE898E00E94B40681E0A0
:10509000D4CF1092D10180E0D0CF0E9446248BE87B
:1050A00098E00E94B40682E08093D101F0CFC43230
:1050B000C8F4CE3108F0BEC0CB30E1F040F4C730C8
:1050C00009F4CFC08DE297E00E94B40626C0C33138
:1050D000C1F1C431B9F78091D001882351F1109208
:1050E000D0010AC0CB3409F4BAC0C8F4C93299F36C
:1050F000C83341F70E9446248091D001882309F4E7
:10510000C7C01F928F9387E297E09F938F930E946F
:105110004D070F900F900F900F9081E08FCFC1350A
:1051200009F497C0C23509F48EC0CE3459F66AE04E
:1051300091C08CE397E00E94B40681E08093D10196
:105140007DCF86E197E00E94B40684E097E00E945C
:10515000B406809114011F928F9381E097E09F9392
:105160008F930E944D078FEF96E00E94B4068DEE5C
:1051700096E00E94B406809113011F928F938AEEED
:1051800096E09F938F930E944D0788EE96E00E94D1
:10519000B40689ED96E00E94B406809112011F9238
:1051A0008F9386ED96E09F938F930E944D0784ED39
:1051B00096E00E94B40683EC96E00E94B4068091CB
:1051C00011011F928F9380EC96E09F938F930E9422
:1051D0004D078EEB96E00E94B40689EA96E00E94A5
:1051E000B406809110011F928F9386EA96E09F93F8
:1051F0008F930E944D0784EA96E00E94B4068DE8E2
:1052000096E00E94B40680910F011F928F938AE866
:1052100096E09F938F930E944D0788E896E00E9446
:10522000B4068DB79EB748960FB6F8949EBF0FBED2
:105230008DBF62CFCE51EC2FF0E0E25DFE4F80815A
:105240008093D00159CF61E08091D0010E945D240C
:1052500053CF61E08091D0010E9401254DCF6AE0DB
:10526000F3CF8EE18093140182E3809313018AE0EF
:105270008093120184E18093110188E080931001F2
:1052800088E280930F018FE297E00E94B40634CF4A
:1052900084E297E019CF0E9452296894B1110C94CE
:1052A000E12908950E94C62988F09F5798F0B92FE8
:1052B0009927B751B0F0E1F0660F771F881F991F4B
:1052C0001AF0BA95C9F714C0B13091F00E94E029E4
:1052D000B1E008950C94E029672F782F8827B85FF4
:1052E00039F0B93FCCF3869577956795B395D9F7A3
:1052F0003EF490958095709561957F4F8F4F9F4FAD
:105300000895E89409C097FB3EF4909580957095B8
:1053100061957F4F8F4F9F4F9923A9F0F92F96E901
:10532000BB279395F695879577956795B795F11176
:10533000F8CFFAF4BB0F11F460FF1BC06F5F7F4F13
:105340008F4F9F4F16C0882311F096E911C0772325
:1053500021F09EE8872F762F05C0662371F096E82E
:10536000862F70E060E02AF09A95660F771F881FFD
:10537000DAF7880F9695879597F9089557FD905815
:10538000440F551F59F05F3F71F04795880F97FB09
:10539000991F61F09F3F79F08795089512161306C3
:1053A0001406551FF2CF4695F1DF08C016161706F2
:1053B0001806991FF1CF8695710561050894089527
:1053C000E894BB2766277727CB0197F908950E94B9
:1053D000FA290C946B2A0E945D2A38F00E94642AF4
:1053E00020F0952311F00C94542A0C945A2A11247D
:1053F0000C94E1290E94BE2970F3959FC1F3950F8B
:1054000050E0551F629FF001729FBB27F00DB11D48
:10541000639FAA27F00DB11DAA1F649F6627B00DD8
:10542000A11D661F829F2227B00DA11D621F739FC1
:10543000B00DA11D621F839FA00D611D221F749FCF
:105440003327A00D611D231F849F600D211D822F16
:10545000762F6A2F11249F5750409AF0F1F088233D
:105460004AF0EE0FFF1FBB1F661F771F881F91506A
:105470005040A9F79E3F510580F00C94542A0C949B
:10548000E1295F3FE4F3983ED4F3869577956795DD
:10549000B795F795E7959F5FC1F7FE2B880F911D94
:1054A0009695879597F9089597F99F6780E870E03A
:1054B00060E008959FEF80EC089500240A9416168A
:1054C000170618060906089500240A9412161306F2
:1054D000140605060895092E0394000C11F4882380
:1054E00052F0BB0F40F4BF2B11F460FF04C06F5F9C
:1054F0007F4F8F4F9F4F0895991B79E004C0991FEC
:10550000961708F0961B881F7A95C9F7809508951D
:1055100097FB072E16F4009407D077FD09D00E9460
:10552000A22A07FC05D03EF4909581959F4F0895DF
:10553000709561957F4F0895EE0FFF1F0590F491D0
:10554000E02D0994AA1BBB1B51E107C0AA1FBB1F7A
:10555000A617B70710F0A61BB70B881F991F5A95FF
:10556000A9F780959095BC01CD010895F999FECFDA
:1055700092BD81BDF89A992780B50895A8E1B0E061
:1055800042E050E00C94D92A262FF999FECF1FBA99
:1055900092BD81BD20BD0FB6F894FA9AF99A0FBE5C
:1055A000019608950E94C42A272F0C94C52ADC0175
:1055B000CB01FC01F999FECF06C0F2BDE1BDF89A1E
:1055C000319600B40D9241505040B8F70895F894C8
:0255D000FFCF0B
:1055D200056D09600A3B0A070AD3090101AF0128D8
:1055E20008140A321E404D36223987043A04040454
:1055F200E203A9031C0335034E0367038703010279
:08560200030405060708090076
:00000001FF
